:100000000C9462030C948A030C948A030C948A0364
:100010000C948A030C948A030C948A030C948A032C
:100020000C948A030C948A030C948A030C948A031C
:100030000C948A030C948A030C948A030C948A030C
:100040000C9488110C948A030C9488100C94621000
:100050000C948A030C948A030C948A030C948A03EC
:100060000C94E50D0C948A0300000000003E5B4FE9
:100070005B3E3E6B4F6B3E1C3E7C3E1C183C7E3C08
:10008000181C577D571C1C5E7F5E1C00183C180016
:10009000FFE7C3E7FF0018241800FFE7DBE7FF30A6
:1000A000483A060E2629792926407F050507407F14
:1000B00005253F5A3CE73C5A7F3E1C1C08081C1C87
:1000C0003E7F14227F22145F5F005F5F06097F017D
:1000D0007F006689956A606060606094A2FFA29468
:1000E00008047E040810207E201008082A1C080836
:1000F0001C2A08081E101010100C1E0C1E0C303884
:100100003E3830060E3E0E06000000000000005F84
:1001100000000007000700147F147F14242A7F2AA0
:100120001223130864623649562050000807030062
:10013000001C2241000041221C002A1C7F1C2A08AE
:10014000083E080800807030000808080808000011
:1001500060600020100804023E5149453E00427F85
:10016000400072494949462141494D331814127FD4
:100170001027454545393C4A494931412111090774
:100180003649494936464949291E000014000000F5
:1001900040340000000814224114141414140041C7
:1001A00022140802015909063E415D594E7C121184
:1001B000127C7F494949363E414141227F414141BC
:1001C0003E7F494949417F090909013E4141517337
:1001D0007F0808087F00417F41002040413F017FA8
:1001E000081422417F404040407F021C027F7F0470
:1001F00008107F3E4141413E7F090909063E4151B9
:10020000215E7F09192946264949493203017F01A8
:10021000033F4040403F1F2040201F3F4038403FA9
:10022000631408146303047804036159494D4300BF
:100230007F4141410204081020004141417F0402F6
:10024000010204404040404000030708002054548D
:1002500078407F284444383844444428384444286B
:100260007F385454541800087E090218A4A49C78BE
:100270007F0804047800447D40002040403D007F1A
:100280001028440000417F40007C047804787C08FA
:100290000404783844444438FC18242418182424CE
:1002A00018FC7C08040408485454542404043F44B3
:1002B000243C4040207C1C2040201C3C4030403CE2
:1002C00044281028444C9090907C4464544C440042
:1002D00008364100000077000000413608000201A6
:1002E0000204023C2623263C1EA1A161123A404092
:1002F000207A38545455592155557941225454780F
:1003000042215554784020545579400C1E527212A7
:100310003955555559395454545939555454580030
:1003200000457C410002457D420001457C407D1234
:1003300011127DF0282528F07C5455450020545496
:100340007C547C0A097F4932494949323A44444441
:100350003A324A4848303A4141217A3A424020787C
:10036000009DA0A07D3D4242423D3D4040403D3C7D
:1003700024FF2424487E4943662B2FFC2F2BFF09A2
:1003800029F620C0887E0903205454794100004496
:100390007D413048484A32384040227A007A0A0A81
:1003A000727D0D19317D2629292F282629292926F4
:1003B00030484D4020380808080808080808382F39
:1003C00010C8ACBA2F102834FA00007B00000814C3
:1003D0002A142222142A14085500550055AA55AA99
:1003E00055AAFF55FF55FF000000FF00101010FF39
:1003F00000141414FF001010FF00FF1010F010F094
:10040000141414FC001414F700FF0000FF00FF1484
:1004100014F404FC141417101F10101F101F1414D0
:10042000141F00101010F0000000001F101010101A
:100430001F10101010F010000000FF10101010100E
:1004400010101010FF10000000FF140000FF00FF4C
:1004500000001F10170000FC04F4141417101714E8
:1004600014F404F40000FF00F7141414141414140A
:10047000F700F7141414171410101F101F1414147D
:10048000F4141010F010F000001F101F0000001FE7
:1004900014000000FC140000F010F01010FF10FF1A
:1004A000141414FF141010101F00000000F010FFAF
:1004B000FFFFFFFFF0F0F0F0F0FFFFFF0000000093
:1004C00000FFFF0F0F0F0F0F3844443844FC4A4A17
:1004D0004A347E02020606027E027E0263554941CC
:1004E000633844443C04407E201E2006027E020203
:1004F00099A5E7A5991C2A492A1C4C7201724C3017
:100500004A4D4D303048784830BC625A463D3E49ED
:100510004949007E0101017E2A2A2A2A2A44445F91
:10052000444440514A444040444A51400000FF0185
:1005300003E080FF000008086B6B08361236243693
:10054000060F090F060000181800000010100030F8
:1005500040FF0101001F01011E00191D1712003C80
:100560003C3C3C000000000000000000240027008C
:100570002A0000000000250028002B00005EBCE2DD
:10058000613FDD83C29C7E20A3FD1F419DC3217F6F
:10059000FCA2401E5F01E3BD3E6082DC237D9FC163
:1005A000421CFEA0E1BF5D0380DE3C62BEE0025C57
:1005B000DF81633D7C22C09E1D43A1FF4618FAA443
:1005C00027799BC584DA3866E5BB5907DB8567392F
:1005D000BAE406581947A5FB7826C49A653BD98723
:1005E000045AB8E6A7F91B45C6987A24F8A6441A17
:1005F00099C7257B3A6486D85B05E7B98CD2306E03
:10060000EDB3510F4E10F2AC2F7193CD114FADF3EE
:10061000702ECC92D38D6F31B2EC0E50AFF1134DE2
:10062000CE90722C6D33D18F0C52B0EE326C8ED0D6
:10063000530DEFB1F0AE4C1291CF2D73CA947628C2
:10064000ABF517490856B4EA6937D58B5709EBB5AE
:1006500036688AD495CB2977F4AA4816E9B7550BA2
:1006600088D6346A2B7597C94A14F6A8742AC89696
:10067000154BA9F7B6E80A54D7896B350000000876
:100680000002010000030407000000000000000059
:1006900000000000230026002900040404040404D0
:1006A0000404020202020202030303030303010221
:1006B00004081020408001020408102001020408F0
:1006C0001020381C11241FBECFEFD8E0DEBFCDBFF5
:1006D00027E0ACEAB5E001C01D92AB3BB207E1F701
:1006E00015E0A0E0B1E0E6EDFEE302C005900D925A
:1006F000AC3AB107D9F713E0C2E6D3E004C02197C2
:10070000FE010E945E1FC136D107C9F70E9406167E
:100710000C94691F0C94000008950895FC01637007
:10072000658B8481958126813781613039F0633012
:1007300029F0918780873387228708953187208722
:100740009387828708952F923F924F925F926F9284
:100750007F928F929F92AF92BF92CF92DF92EF9251
:10076000FF920F931F93CF93DF93CDB7DEB76C97B4
:100770000FB6F894DEBF0FBECDBF9C8F8B8F5B0191
:100780001A011F830E833701C982DC0158964D91EF
:100790005C9159974115510509F0E5C018968D9166
:1007A0009C911997681779070CF0CAC11A968D9118
:1007B0009C911B97281639060CF0C2C18C2C912CE9
:1007C000FB0136E0C39EE00DF11D1124FB87EA8793
:1007D0001E161F060CF0B4C1C40133E0880F991F28
:1007E0003A95E1F79D878C87820D931D181619069F
:1007F0000CF0A6C157968C91811103C0203B08F0E4
:100800002F5FAB8DBC8DED91FC9111970284F38528
:10081000E02DCD012A8F09952A8DB5E02B9F9001FF
:100820001124F5013596FF87EE87BB82AA82250148
:10083000A9014A195B09598B488BC10108969B8B0A
:100840008A8BE889F989E40DF51DE859FF4F9491E9
:10085000988761013D822C82A885A0FF13C0AB8DD3
:10086000BC8DED91FC91B981B13031F40484F585F2
:10087000E02D2E813F8116C00684F785E02DEE80A5
:10088000FF801AC0EE81FF816E167F06F1F0AB8DFE
:10089000BC8DED91FC91B981B13051F40484F585A2
:1008A000E02D9301A601B2018B8D9C8D09950DC0A1
:1008B0000684F785E02D7301840194014C815D81EC
:1008C0006A817B818B8D9C8D0995E885E695E8870B
:1008D000FFEFCF1ADF0A2C813D81280D391D3D83A2
:1008E0002C834A895B89C416D50609F0B5CF5FEF22
:1008F000451A550A8A819B81880D991D9B838A839D
:10090000AE85BF854A165B0609F09BCFEE81FF815D
:100910006E167F0609F4F2C0EB8DFC8DA081B181CB
:10092000F981F13079F4B5016B5F7F4F5096ED910D
:10093000FC915197830128E030E0A1018B8D9C8DC3
:100940000995DCC06A857B85681979091E96ED9149
:10095000FC911F9773010C851D859401A1018B8D5E
:100960009C8D0995CBC0FA0134969491329765918C
:100970007491291BCB01B7E02B9F800D911D112491
:10098000FA01259134913B8B2A8BFC0145915491BE
:100990005B834A83FC013296C490319654915E8702
:1009A000329614913196D4908981823058F0612E1C
:1009B000012E000C7708AD2D0D2C000CBB0BB98758
:1009C000A88704C019861886612C712CAB8DBC8D4C
:1009D000ED91FC9111970284F385E02DCD010995ED
:1009E000B9818B2E912C689CC001699C900D789CDC
:1009F000900D1124FC01EA0DFB1DFD87EC871C8284
:100A0000712C612CE12F110FFF0B95012E0F3F1F51
:100A10003B872A87AC0CB11CA5014E0F5F1F5F8B73
:100A20004E8BC1018D0D911DD7FC9A95998F888FA2
:100A30004E85641608F062C0862D90E04885598581
:100A4000480F591F489D9001499D300D589D300D0C
:100A50001124D901A20DB31DB98BA88BAA84BB8424
:100A60004C845D84DC80BA85DB1AE88DF98DE80F53
:100A7000F91FFD8BEC8B8D2D8A0D2E893F89A216D7
:100A8000B306B9F1877061F48A819B810196EA8986
:100A9000FB89AA81BB81EA0FFB1F74909B838A8329
:100AA00077FE20C0AB8DBC8DED91FC91B981B1304A
:100AB00061F40484F585E02D2E813F814C895D89A8
:100AC000B5018B8D9C8D09950DC00684F785E02DB1
:100AD000EE80FF808401940148895989B2018B8D91
:100AE0009C8D0995770CEFEFAE1ABE0A480C591C85
:100AF000C2CF3C813C0D3C8363949ACFAB8DBC8DBF
:100B0000ED91FC9111970688F789E02DCD016C9647
:100B10000FB6F894DEBF0FBECDBFDF91CF911F910E
:100B20000F91FF90EF90DF90CF90BF90AF909F908C
:100B30008F907F906F905F904F903F902F9009948F
:100B40006C960FB6F894DEBF0FBECDBFDF91CF918C
:100B50001F910F91FF90EF90DF90CF90BF90AF90DB
:100B60009F908F907F906F905F904F903F902F90CD
:100B70000895AF92BF92CF92EF92FF920F931F937F
:100B8000CF93DF93EC01262F888D998D009709F084
:100B900040C06A3059F41D861C862C898E859F853D
:100BA00038E0239F800D911D112441C06D3009F460
:100BB000AAC08E898823C1F03C898C859D8546E03A
:100BC000349F800D911D1124488559854817590778
:100BD0005CF41D861C868E859F8548E0349F800DC1
:100BE000911D11249F878E87EA88FB8808891989BF
:100BF0004E855F856C857D85CC88CE010E94A303E0
:100C00002C898C859D8536E0239F800D911D1124B4
:100C100042C06A3079F41D861C862C89FC01369608
:100C2000E4918E859F852E9F800D911D11249F87B5
:100C30008E8769C06D3009F466C0FC01349634912A
:100C4000631708F460C03196E491E61708F45BC0BE
:100C5000FC013296A590B490462F50E0431B5109F9
:100C600037E0349FB001359F700D1124A60EB71EDA
:100C7000F501329634913196E491332311F0E1116C
:100C80000DC0F5013496E4912C898C859D85E29FF9
:100C9000800D911D11249D878C8735C0F5013596F7
:100CA00044915E89552311F16C89E32FF0E0E40F44
:100CB000F11D47FDFA956E9FD0016F9FB00D112475
:100CC0004C855D854A0F5B1FE885F985E417F507BC
:100CD0006CF41D861C86FC013696E4918E859F85FA
:100CE0006E9F800D911D11249F878E87EA88FB8857
:100CF000088919894E855F856C857D85CC88CE01F4
:100D00000E94A303BECF81E090E0DF91CF911F91BD
:100D10000F91FF90EF90CF90BF90AF9008956F929A
:100D20007F928F929F92AF92BF92CF92DF92EF927B
:100D3000FF920F931F93CF93DF93EC014B015A0166
:100D400069013801E881F9810284F385E02D099574
:100D5000E881F9810288F389E02D87019601A501D8
:100D6000B401CE010995E881F981A501460D571D11
:100D7000415051090288F389E02D9601B401CE015A
:100D80000995E881F9810088F189E02D9301A50199
:100D9000B401CE010995E881F981C80CD91CB601CE
:100DA000615071090088F189E02D9301A501CE0100
:100DB0000995E881F9810688F789E02DCE01DF9158
:100DC000CF911F910F91FF90EF90DF90CF90BF9048
:100DD000AF909F908F907F906F900994CF92DF9209
:100DE000EF92FF920F931F93CF93DF9300D000D029
:100DF00000D0CDB7DEB76C01DC01ED91FC9162173C
:100E0000730789F4041715072CF4942F852FA80174
:100E1000092F182F041B150B98012F5F3F4F048CCF
:100E2000F58DE02D12C04017510709F52617370739
:100E30002CF4962F872FB901292F382F261B370B1B
:100E40002F5F3F4F068CF78DE02D8701C601099576
:100E500026960FB6F894DEBF0FBECDBFDF91CF91BF
:100E60001F910F91FF90EF90DF90CF900895028433
:100E7000F385E02D2D833E834B835C8369837A83E6
:100E80000995D601ED91FC910488F589E02D2D811D
:100E90003E814B815C8169817A81C6010995D601C9
:100EA000ED91FC910688F789E02DC60126960FB6D4
:100EB000F894DEBF0FBECDBFDF91CF911F910F9190
:100EC000FF90EF90DF90CF900994EF92FF920F93F5
:100ED0001F93DC01ED91FC9111971A960D911C91D5
:100EE0001B9718962D913C91199700A0F1A1E02D28
:100EF0007B0140E050E060E070E009951F910F91A8
:100F0000FF90EF9008954F925F926F927F928F9231
:100F10009F92AF92BF92CF92DF92EF92FF920F9388
:100F20001F93CF93DF9300D0CDB7DEB76C015A018A
:100F300039014801DC01ED91FC910284F385E02D3B
:100F400069837A8309956981462E7A81572E640CCC
:100F5000751CD601ED91FC91461457046CF4008881
:100F6000F189E02D87019401A501B201C60109951F
:100F7000BFEF4B1A5B0AEDCF0688F789E02DC6015B
:100F80000F900F90DF91CF911F910F91FF90EF90F5
:100F9000DF90CF90BF90AF909F908F907F906F9099
:100FA0005F904F900994AF92BF92CF92DF92EF92F1
:100FB000FF920F931F93CF93DF9300D000D0CDB754
:100FC000DEB75C016901DC01ED91FC910284F385DF
:100FD000E02D4B835C8369837A830995D501ED917C
:100FE000FC9169817A819B012C0D3D1D21503109B5
:100FF0000488F589E02D78014B815C818A01C50167
:101000000995D501ED91FC910688F789E02DC50180
:101010000F900F900F900F90DF91CF911F910F9134
:10102000FF90EF90DF90CF90BF90AF900994AF9278
:10103000BF92CF92DF92EF92FF920F931F93CF93C5
:10104000DF9300D000D0CDB7DEB75C016901DC01D1
:10105000ED91FC910284F385E02D4B835C836983E1
:101060007A830995D501ED91FC914B815C81C40E89
:10107000D51EB1E0CB1AD1080488F589E02D78019E
:10108000860169817A819B01C5010995D501ED91A0
:10109000FC910688F789E02DC5010F900F900F9005
:1010A0000F90DF91CF911F910F91FF90EF90DF9004
:1010B000CF90BF90AF9009940895EF92FF920F9355
:1010C0001F93DC01ED91FC9100A0F1A1E02D0995A9
:1010D0001F910F91FF90EF9008950F931F93DC01E4
:1010E000ED91FC91068CF78DE02D09951F910F91E4
:1010F00008950F931F93DC01ED91FC91048CF58D05
:10110000E02D09951F910F910895DC01ED91FC915F
:101110000084F185E02D099408952F923F924F921B
:101120005F926F927F928F929F92AF92BF92CF9277
:10113000DF92EF92FF920F931F93CF93DF9300D034
:101140001F92CDB7DEB74C017B836A836A015901D8
:1011500017019801241B350B37FF03C031952195EA
:101160003109C5014A815B81841B950B97FF03C040
:1011700091958195910951E059838217930714F055
:1011800019820BC09A2D8B2D5801092F182F9A8187
:101190008B81DB82CA82C92ED82E8A819B81A816B8
:1011A000B9065CF49C2D8D2D6801092F182F9A81AA
:1011B0008B81BB82AA82A92EB82E2501AA81BB8170
:1011C0004A1A5B0A38016C187D0877FE03C07194D7
:1011D00061947108720157FE03C0BFEFEB1AFB0A5E
:1011E000F594E794C016D1061CF00FEF1FEF1FC057
:1011F00001E010E01CC0D401ED91FC91B9810484A0
:10120000F585E02D9101BB23C1F04A815B81B601D8
:10121000C4010995E618F708F7FE04C0C00ED11EF8
:10122000E40CF51CEA81FB813196FB83EA834A8159
:101230005B81A416B506FCF604C0A6016A817B8119
:10124000E7CF0F900F900F90DF91CF911F910F91EB
:10125000FF90EF90DF90CF90BF90AF909F908F90D6
:101260007F906F905F904F903F902F9008950F93D5
:101270001F93CF93DF93DC0155968C915597823065
:1012800071F0833009F1813009F08CC01496ED9132
:10129000FC911597E41BF50BE21BF30B20C0149691
:1012A000ED91FC911597CF01861B970BBC01615006
:1012B00071091696ED91FC911797CF01841B950B40
:1012C000AC01421B530B6EC01696ED91FC91179723
:1012D000CF01861B970BBC0161507109FA0177FDA4
:1012E0001BC116968D919C911797681779070CF082
:1012F00013C1F7FF04C02E0F3F1FE0E0F0E014968B
:101300008D919C911597AF01420F531F841795073C
:101310001CF49C012E1B3F0B121613060CF0FCC094
:10132000CB0177FD079643E0959587954A95E1F7C0
:101330009695982F882797958795E80FF91FE05085
:10134000FF4F6770772781E090E001C0880F6A95B2
:10135000EAF7482F0130110541F088F002301105FD
:1013600009F0DAC02E0F3F1F15C02E0F3F1FE217E6
:10137000F30709F4D1C08081842B8193F8CF809545
:101380002E0F3F1FE217F30709F4C6C09081982380
:101390009193F8CFE217F30709F4BEC08081842748
:1013A0008193F8CF77FDB8C014968D919C911597D5
:1013B000681779070CF0B0C057FF04C0240F351F21
:1013C00040E050E016968D919C911797FA01E20F3C
:1013D000F31F8E179F071CF49C01241B350B12165C
:1013E00013060CF099C0A22F842F869586958695BA
:1013F00090E8899F600D711D1124FB01E050FF4FA3
:101400004770A9F198E0941B492F50E0EA01C85FAA
:10141000DA4F8881291790F4421B51092FEF30E0F1
:1014200002C0359527954A95E2F7822301301105D0
:1014300041F068F00230110589F06EC001301105ED
:1014400019F42081822B0CC00130110520F4809505
:101450002081822305C00230110531F420818227CA
:101460008083A91708F458C0A91BE058FF4FA83083
:1014700048F10230110559F4EF018A2F98819095B7
:101480009883C058DF4F88508830C0F730C081E063
:101490000130110509F080E08195EF019A2F8883D2
:1014A000C058DF4F98509830D0F788EF8A0F869554
:1014B0008695869590E8899FE00DF11D1124E058EE
:1014C000FF4FA770AA2341F1B0E0A050BB4F8C9111
:1014D0000130110529F038F002301105D1F01CC09F
:1014E0009081892B18C080959081892314C088EF42
:1014F0008A0F86958695869590E8899FE00DF11D67
:101500001124E058FF4FA77039F0B0E0A050BB4F56
:101510008C91908189278083DF91CF911F910F91CA
:1015200008950F931F93CF93DF93DC01FB01559632
:101530008C915597823081F0833019F1813051F5CB
:1015400014968D919C911597BC01641B750BAB0192
:1015500041505109BF0181C014966D917C9115973E
:10156000CB018E1B9F0BFC0116968D919C911797BA
:10157000BC01641B750BAB0141505109E21BF30B1D
:1015800009C016966D917C9117976E1B7F0B621B9D
:10159000730B63C057FD1CC116968D919C911797D4
:1015A000481759070CF014C1F7FF04C02E0F3F1F56
:1015B000E0E0F0E014968D919C911597BF01620FC9
:1015C000731F861797071CF49C012E1B3F0B1216E6
:1015D00013060CF0FDC0CA0157FD079663E0959510
:1015E00087956A95E1F79695982F8827979587951F
:1015F000E80FF91FE050FF4F4770552781E090E05A
:1016000001C0880F4A95EAF7482F0130110541F0D3
:1016100088F00230110509F0DBC02E0F3F1F15C006
:101620002E0F3F1FE217F30709F4D2C08081842BED
:101630008193F8CF80952E0F3F1FE217F30709F42F
:10164000C7C0908198239193F8CFE217F30709F46C
:10165000BFC0808184278193F8CF57FDB9C014960D
:101660008D919C911597481759070CF0B1C077FFE1
:1016700004C0260F371F60E070E016968D919C9194
:101680001797FB01E20FF31F8E179F071CF49C01B5
:10169000261B370B121613060CF09AC0A22F862FAA
:1016A00086958695869590E8899F400D511D112459
:1016B000FA01E050FF4F6770A9F198E0961B492F9F
:1016C00050E0EA01C85FDA4F8881291790F4421B85
:1016D00051092FEF30E002C0359527954A95E2F782
:1016E00082230130110541F068F00230110589F0C4
:1016F0006FC00130110519F42081822B0CC001301C
:10170000110520F480952081822305C00230110547
:1017100031F4208182278083A91708F459C0A91BBE
:10172000E058FF4FA83048F10230110559F4EF019D
:101730008A2F988190959883C058DF4F88508830C1
:10174000C0F731C081E00130110509F080E08195DA
:10175000EF019A2F8883C058DF4F98509830D0F708
:1017600088EF8A0F86958695869560E8869FE00DBE
:10177000F11D1124E058FF4FA770AA2349F1B0E0F2
:10178000A050BB4F8C910130110529F038F0023088
:101790001105D9F01DC09081892B03C080959081DF
:1017A0008923808315C088EF8A0F86958695869554
:1017B00070E8879FE00DF11D1124E058FF4FA770DE
:1017C00039F0B0E0A050BB4F8C9190818927E9CFD0
:1017D000DF91CF911F910F910895FC0177FD9AC081
:1017E00080859185681779070CF094C057FD92C0E9
:1017F00082859385481759070CF08CC08589823003
:1018000009F07CC084819581DC01A61BB70BBD016A
:101810006150710986819781FC01E41BF50BAF01D2
:10182000415051090AC0813041F484819581841B63
:10183000950BAB01BC01615071092130310529F0D4
:1018400008F122303105E1F10895FA0157FD37968C
:10185000A3E0F595E795AA95E1F7F695FE2FEE271B
:10186000F795E7956E0F7F1FFB01E050FF4F477024
:10187000552781E090E001C0880F4A95EAF79081F2
:10188000892B3AC0FA0157FD379623E0F595E79585
:101890002A95E1F7F695FE2FEE27F795E7956E0F5F
:1018A0007F1FFB01E050FF4F4770552781E090E01C
:1018B00001C0880F4A95EAF78095908189231CC062
:1018C000FA0157FD379683E0F595E7958A95E1F79C
:1018D000F695FE2FEE27F795E7956E0F7F1FFB011C
:1018E000E050FF4F4770552781E090E001C0880F1E
:1018F0004A95EAF79081892780830895833009F01B
:1019000092CF86819781861B970BBA01AC0141501B
:10191000510993CF089585ED8093BC008091BC0060
:1019200084FDFCCF10924D0608954091CE05262FE0
:1019300030E0240F311D21323105DCF420914D06B9
:101940002430C9F4FC0180E090E0861758F430910F
:10195000CE052191DC01A455BA4FA30FB11D2C93E4
:101960000196F3CF8091CE05680F6093CE0580E09D
:10197000089581E0089582E008950895E091F405C6
:101980008091F305E81730F4F0E0E250FA4F8081DF
:1019900090E008958FEF9FEF08959091F405809166
:1019A000F305981750F4E92FF0E0E250FA4F208148
:1019B00030E09F5F9093F40502C02FEF3FEFC90125
:1019C00008958091F30590E02091F405821B910920
:1019D0000895CF92DF92EF92FF920F931F93CF93D0
:1019E000DF937C01262F972F8A0180914E06882352
:1019F00091F0C62FD72F6E01C40ED51ECC15DD0574
:101A000071F06991D701ED91FC910190F081E02D89
:101A1000C7010995F3CF642F822F0E94950CC8014E
:101A2000DF91CF911F910F91FF90EF90DF90CF90BA
:101A30000895CF93DF931F92CDB7DEB769832091CE
:101A40004E062223D1F020917106203240F021E091
:101A500030E0FC013383228380E090E015C0809168
:101A60004F06E82FF0E0E05BF94F998190838F5F9C
:101A700080934F068093710605C061E0CE01019608
:101A80000E94950C81E090E00F90DF91CF91089536
:101A9000089580E090E00895FC0190810180F2813A
:101AA000E02DF8948181292F2095822381837894D9
:101AB0008DE743E050E0815021F1DA011197F1F711
:101AC00030813923C1F3F89482818223828381811A
:101AD000892B81837894ABE7B7E01197F1F7F894FD
:101AE000818128232183A3E1B1E01197F1F780815F
:101AF000982381E009F080E07894E3E6F6E03197FE
:101B0000F1F708956F927F928F929F92AF92BF925A
:101B1000CF92DF92EF92FF920F931F93CF93DF93B9
:101B200000D0CDB7DEB78C017A01FC0185819681AA
:101B300069837A830E944C0D69817A81882391F1AF
:101B4000F801858196810E94F71240E06EEBF80162
:101B5000858196810E94B51237015701F9E0AF0ED9
:101B6000B11CF8018580968088E0C82ED12CEE2427
:101B7000E394F12CC4010E9424138111FE28EE0C81
:101B8000F1E0CF1AD108B1F7F301F1923F01EA1564
:101B9000FB0539F7F801858196810E944C0D91E093
:101BA000813009F090E0892F0F900F90DF91CF9155
:101BB0001F910F91FF90EF90DF90CF90BF90AF906B
:101BC0009F908F907F906F9008951F920F920FB605
:101BD0000F9211242F933F934F935F936F937F93B3
:101BE0008F939F93AF93BF93EF93FF938091B9002F
:101BF000887F803609F49CC068F5883209F45BC0A0
:101C000090F4803109F454C038F4882309F4F6C004
:101C1000883009F44DC0F6C0883109F44CC08032D8
:101C200009F45DC0EFC0803409F468C048F4803323
:101C300009F455C0883309F0E5C080934B06D8C03D
:101C4000803509F44FC0883509F45DC0883409F047
:101C5000D9C0D6C0883909F4C7C0A8F4883709F4B8
:101C600067C038F4883609F463C0803709F460C06F
:101C7000C9C0883809F4B8C0803909F45FC0803819
:101C800009F0C0C05BC0803B09F486C038F4803ADC
:101C900009F466C0883A09F47FC0B4C0803C09F4F6
:101CA000A7C0883C09F4A4C0883B09F48AC0AAC034
:101CB0008091280610C090914A0680914906981795
:101CC00070F5E0914A0681E08E0F80934A06F0E0BD
:101CD000E75DF94F80818093BB0085EC86C08093DF
:101CE0004B068EC0E0914A0681E08E0F80934A0633
:101CF0008091BB00F0E0E75DF94F808390914A0648
:101D0000809149066EC0E0914A0681E08E0F809373
:101D10004A068091BB00F0E0E75DF94F8083809137
:101D20004C0681116DC081E08093270684EA61C072
:101D300083E080934D061092F205CFCF8091F2059B
:101D4000803208F051C0E091F20581E08E0F80935F
:101D5000F2058091BB00F0E0EE52FA4F8083BDCFD8
:101D600085EC8093BC0010924D068091F205803284
:101D700030F4E091F205F0E0EE52FA4F10826091FB
:101D8000F20570E0E091D005F091D10582ED95E08B
:101D900009951092F20536C084E080934D061092AA
:101DA000CF051092CE05E091CC05F091CD050995B7
:101DB0008091CE05811105C081E08093CE051092FF
:101DC000AC05E091CF0581E08E0F8093CF05F0E068
:101DD000E455FA4F80818093BB009091CF058091AC
:101DE000CE05981708F479CF85E88093BC000AC027
:101DF00085EC8093BC0010924D0604C010924B06F7
:101E00000E948B0CFF91EF91BF91AF919F918F91A9
:101E10007F916F915F914F913F912F910F900FBEE6
:101E20000F901F90189510924D0681E080934C06FC
:101E30001092270661E082E10E94BA1061E083E11E
:101E40000E94BA10E9EBF0E080818E7F8083808170
:101E50008D7F808388E48093B80085E48093BC0004
:101E60000895FC01538D448D252F30E0842F90E0A0
:101E7000821B930B541710F0CF9608950197089585
:101E8000FC01918D828D981761F0828DDF01A80F82
:101E9000B11D5D968C91928D9F5F9F73928F90E0A4
:101EA00008958FEF9FEF0895FC01918D828D981713
:101EB00031F0828DE80FF11D858D90E008958FEF50
:101EC0009FEF0895FC01918D228D892F90E0805C19
:101ED0009F4F821B91098F739927089582E796E09F
:101EE0000E94620F21E0892B09F420E0822F0895DF
:101EF000FC01848DDF01A80FB11DA35ABF4F2C91A7
:101F0000848D90E001968F739927848FA689B78975
:101F10002C93A089B1898C9180648C93938D848D4E
:101F2000981306C00288F389E02D80818F7D80831D
:101F30000895EF92FF920F931F93CF93DF93EC01DD
:101F400081E0888F9B8D8C8D981305C0E889F98975
:101F5000808185FD24C0F62E0B8D10E00F5F1F4F92
:101F60000F731127E02E8C8DE8120CC00FB607FC02
:101F7000FACFE889F989808185FFF5CFCE010E94EB
:101F8000780FF1CF8B8DFE01E80FF11DE35AFF4F63
:101F9000F0820B8FEA89FB898081806207C0EE891D
:101FA000FF896083E889F98980818064808381E08A
:101FB00090E0DF91CF911F910F91FF90EF900895E6
:101FC000CF93DF93EC01888D8823C9F0EA89FB89E0
:101FD000808185FD05C0A889B9898C9186FD0FC0D7
:101FE0000FB607FCF5CF808185FFF2CFA889B989AC
:101FF0008C9185FFEDCFCE010E94780FE7CFDF9166
:10200000CF91089580E090E0892B29F00E946E0F17
:1020100081110C94000008953FB7F8948091230635
:1020200090912406A0912506B091260626B5A89B7E
:1020300005C02F3F19F00196A11DB11D3FBFBA2F5A
:10204000A92F982F8827820F911DA11DB11DBC01BA
:10205000CD0142E0660F771F881F991F4A95D1F77F
:102060000895FC0190810180F281E02D892F8095F7
:1020700060FF12C0F8942281822382838181892BA0
:102080008183A3E2B0E01197F1F78281982B9283CC
:10209000789487ED90E011C0F894228182238283A6
:1020A0008181892B8183AFEFB0E01197F1F78281B5
:1020B000982B928378948FE090E00197F1F7089540
:1020C0000E94641F1F920F920FB60F9211242F933C
:1020D0003F934F935F936F937F938F939F93AF93B0
:1020E000BF93EF93FF9382E796E00E94780FFF91F2
:1020F000EF91BF91AF919F918F917F916F915F9180
:102100004F913F912F910F900FBE0F901F901895F8
:102110001F920F920FB60F9211242F938F939F93BC
:10212000EF93FF93E0918206F09183068081E09126
:102130008806F091890682FD12C0908180918B06FD
:102140008F5F8F7320918C06821751F0E0918B0680
:10215000F0E0EE58F94F958F80938B0601C0808197
:10216000FF91EF919F918F912F910F900FBE0F9044
:102170001F90189590E0FC01E458F94F3491FC0150
:10218000E255F94F2491FC01E656F94FE491EE2314
:1021900009F43BC0332339F1333091F038F4313056
:1021A000A9F0323001F584B58F7D12C0373091F03F
:1021B0003830A1F03430B9F4809180008F7D03C0B5
:1021C000809180008F77809380000DC084B58F77D9
:1021D00084BD09C08091B0008F7703C08091B000AA
:1021E0008F7D8093B000F0E0EE0FFF1FEE58FA4FA6
:1021F000A591B4918FB7F894EC91611103C020952B
:102200002E2301C02E2B2C938FBF0895CF93DF93E5
:1022100090E0FC01E255F94F2491FC01E656F94F9C
:102220008491882361F190E0880F991FFC01E8599F
:10223000FA4FC591D491FC01EE58FA4FA591B49193
:10224000611109C09FB7F894888120958223888303
:10225000EC912E230BC0623061F49FB7F894388163
:10226000822F809583238883EC912E2B2C939FBF04
:1022700006C08FB7F894E8812E2B28838FBFDF919B
:10228000CF9108958F929F92AF92BF92CF92DF929B
:10229000EF92FF926B017C010E940C104B015C01DC
:1022A000C114D104E104F104F1F00E940C10DC012E
:1022B000CB0188199909AA09BB09883E9340A10559
:1022C000B10570F321E0C21AD108E108F10888EEE7
:1022D000880E83E0981EA11CB11CC114D104E10436
:1022E000F10419F7DDCFFF90EF90DF90CF90BF9012
:1022F000AF909F908F9008952FB7F89460911F062C
:102300007091200680912106909122062FBF08959A
:102310001F920F920FB60F9211242F933F938F931A
:102320009F93AF93BF9380911F0690912006A09139
:102330002106B091220630911E0623E0230F2D378F
:1023400020F40196A11DB11D05C026E8230F0296B9
:10235000A11DB11D20931E0680931F069093200699
:10236000A0932106B0932206809123069091240623
:10237000A0912506B09126060196A11DB11D80935E
:10238000230690932406A0932506B0932606BF91BA
:10239000AF919F918F913F912F910F900FBE0F9012
:1023A0001F9018951F93CF93DF93CDB7DEB72B9770
:1023B0000FB6F894DEBF0FBECDBF81E080934E060E
:1023C00088E68093700610924F061092710660E0C6
:1023D00087E597E00E94190D81E00E943E148091EC
:1023E0004D068111FCCF81E080934D0680934C0611
:1023F0009FEF90934B0610924A0696E09093490601
:102400008093280680912806806D8093280680910D
:102410002706813061F41092270680912806809368
:10242000BB008091BC0083FDF8CF85EC01C085EE38
:102430008093BC0080914D068130E1F380914A0683
:10244000873018F480914A0601C087E0A9E2B6E01F
:102450002EEF35E0F9019E2F921B981718F49D91ED
:102460009193F9CF1092F4058093F30587E597E0F7
:102470000E94CD0C8F77982F92959F701AEF782F2E
:10248000919F700D112487E597E07B870E94CD0C0A
:102490009C01332794E0359527959A95E1F7682FAD
:1024A000129F600D112487E597E06A870E94CD0C8A
:1024B0009C01332744E0359527954A95E1F7582F3D
:1024C000129F500D112487E597E059870E94CD0C8B
:1024D00087E597E00E94CD0C9C01332754E03595A9
:1024E00027955A95E1F7482F129F400D112487E553
:1024F00097E048870E94CD0C9C01332764E0359516
:1025000027956A95E1F7382F129F300D112487E542
:1025100097E03F830E94CD0CFC01FF2774E0F59506
:10252000E7957A95E1F7282F1E9F200D11243F8112
:10253000488559856A857B8580E090E02B960FB6AB
:10254000F894DEBF0FBECDBFDF91CF911F910895EC
:10255000DC01E0E0615038F08D91E827F0E0E458CC
:10256000FA4FE491F7CF8E2F0895CF92DF92EF923A
:10257000FF920F931F93CF93DF931F92CDB7DEB7D8
:102580006C01E62E08E010E0FF24F39461E08F2D4B
:102590008E2109F460E0C60149830E943110FF0CCE
:1025A0000150110949810115110581F7411115C02B
:1025B000F894D6011196ED91FC91129791818C912E
:1025C0008095892381831196ED91FC9112979281D8
:1025D0008C9180958923828378940F90DF91CF919D
:1025E0001F910F91FF90EF90DF90CF900895CF92C1
:1025F000DF92EF92FF920F931F93CF93DF931F927F
:10260000CDB7DEB78C01F62E40E065E579830E94F8
:10261000B512CF2C7981D72E760188E0E80EF11C17
:10262000F60161916F0140E0C8010E94B512CE141D
:10263000DF04B1F70F90DF91CF911F910F91FF90C1
:10264000EF90DF90CF900895FC0190810180F2819E
:10265000E02DF8948181892B81832281892F8095B7
:1026600028232283A7E0B0E01197F1F7218182238C
:102670008183A3E2B0E01197F1F780817894EFECC9
:10268000F0E03197F1F7982381E009F480E00895B4
:10269000AF92BF92CF92DF92EF92FF920F931F9370
:1026A000CF93DF931F92CDB7DEB75C01E62ED72E16
:1026B000FC01858581115DC0C5010E944C0D811111
:1026C00005C0F5011386158614866BC040E060EFE7
:1026D000C5010E94B51201E0F12CC12C11E0C50129
:1026E0000E942413682FC50169830E942413698105
:1026F000613019F48130B9F433C04F2D50E06813C4
:102700001BC0F5018385181730F4E40FF51F838192
:10271000802349F402C0181731F060E0193058F4F2
:10272000F501148708C0F501EF0DF11D8381802BA1
:10273000838361E009C0C12EF501E40FF51F938189
:10274000802F809589238383C5010E9431101F5FEC
:10275000000F11F4F39401E0F7E0FF1508F0BFCF8C
:10276000113438F0F501C386C11015C081E08587AA
:1027700012C0F50113861586148680E0D5011396E4
:10278000EE2DFD2D9501255F3F4F9D919193A21751
:10279000B307D9F706C0F5018381882351F381E09F
:1027A000EDCF0F90DF91CF911F910F91FF90EF90A0
:1027B000DF90CF90BF90AF90089590919B079923A1
:1027C00039F08EBD00000DB407FEFDCF8EB5089523
:1027D00028E030E040E8E0919E07F0919F075081AB
:1027E0009091A507909595239083E0919C07F09197
:1027F0009D079091A407542F582319F05081952BD1
:1028000003C05081909595239083E0919E07F091AD
:102810009F0750819091A507952B90834695215055
:102820003109C9F60895CF92DF92EF92FF920F938C
:102830001F93CF93DF936C017A018B01C0E0D0E04E
:10284000CE15DF0589F0D8016D918D01D601ED918E
:10285000FC910190F081E02DC6010995892B11F4BE
:102860007E0102C02196ECCFC701DF91CF911F916D
:102870000F91FF90EF90DF90CF900895382F209127
:10288000710690917006213208F049C080914D0682
:102890008111FCCF42E040934D0630934C063FEF50
:1028A00030934B0610924A0620934906A0E5B6E005
:1028B00049E256E0FA013E2F341B321718F43D91DD
:1028C0003193F9CF1092280620912806990F922B68
:1028D0009093280690912706913061F41092270674
:1028E000909128069093BB009091BC0093FDF8CF87
:1028F00095EC01C095EE9093BC0090914D069230FE
:10290000E1F390914B069F3F79F080914B06803226
:1029100041F080914B06803331F084E005C081E0C6
:1029200003C082E001C083E010924F06109271064E
:1029300010924E060895CF93C82F809196078F3F2F
:1029400059F1E091A007F091A10780819091A6072D
:10295000982B9083E091A207F091A307208190919A
:10296000A707909592239083E091A007F091A1078B
:1029700020819091A6079095922390838C2F0E949E
:10298000DD13E091A007F091A10790818091A60747
:10299000892B8083CF9108958091940791E0909343
:1029A0004E068093700610924F061092710660E0FA
:1029B00087E597E00E94190D6C2F87E597E00E944C
:1029C000190D81E0CF910C943E14EF92FF920F937A
:1029D0001F93CF93DF9381E20E949B1480E00E94BB
:1029E0009B148FE70E949B1482E20E949B1480E05C
:1029F0000E949B1487E00E949B14809196078F3F52
:102A000079F1E091A007F091A10790818091A6074C
:102A1000892B8083E091A207F091A3079081809198
:102A2000A707892B8083E091A007F091A1079081EF
:102A30008091A607809589238083C0E0D1E08991A9
:102A40000E94DD1385E0C030D807C9F7E091A007E8
:102A5000F091A10790818091A607892B808331C0D6
:102A6000F090B8008CE08093B800C0E0D1E0EE2494
:102A7000E39480919407E0924E0680937006109242
:102A80004F061092710660E487E597E00E94190DE9
:102A900000E010E0FE01E00FF11F608187E597E0A4
:102AA0000E94190D0F5F1F4F0031110599F781E04A
:102AB0000E943E14609685E0C030D807D1F6F092AF
:102AC000B800DF91CF911F910F91FF90EF90089583
:102AD000CF93DF93CDB7DEB729970FB6F894DEBF5B
:102AE0000FBECDBFFC012081203131F1BC01AE0110
:102AF0004F5F5F4F87E697E00E94820D882379F051
:102B000068E0CE0101960E94A8129985891307C03A
:102B100008C0803458F08F3569F08F3769F080E055
:102B20000CC08D818F33A9F78AE007C08F31B9F7C8
:102B300089E003C08BE001C08CE029960FB6F894C1
:102B4000DEBF0FBECDBFDF91CF9108956115710536
:102B500079F0FB0101900020E9F73197AF01461BA6
:102B6000570BDC01ED91FC910280F381E02D09947B
:102B700080E090E008954F925F926F927F92EF9283
:102B8000FF920F931F93CF93DF93CDB7DEB7A1973B
:102B90000FB6F894DEBF0FBECDBF7C01FA01CB01AA
:102BA00019A2223008F42AE08E010F5D1F4F422E39
:102BB000512C612C712CBF01A30192010E946E1E49
:102BC000F901CA01015011096A3014F4605D01C0B5
:102BD000695CD8016C93232B242B252B61F7B8015A
:102BE000C7010E94A615A1960FB6F894DEBF0FBECE
:102BF000CDBFDF91CF911F910F91FF90EF907F900C
:102C00006F905F904F9008950C94A615CF93DF932B
:102C1000CDB7DEB761970FB6F894DEBF0FBECDBF5C
:102C2000789484B5826084BD84B5816084BD85B5A7
:102C3000826085BD85B5816085BD80916E008160B3
:102C400080936E0010928100809181008260809359
:102C5000810080918100816080938100809180005B
:102C60008160809380008091B10084608093B10086
:102C70008091B00081608093B00080917A00846080
:102C800080937A0080917A00826080937A008091AC
:102C90007A00816080937A0080917A0080688093C6
:102CA0007A001092C10010925307109254071092AC
:102CB00055071092560710921107109212071092A2
:102CC00013071092140768EB7BE080E090E00E940D
:102CD000421182E796E09093520780935107E0916A
:102CE0008206F091830612E01083E0917E06F09157
:102CF0007F061082E0918006F091810680E180835A
:102D000010928A06E0918606F091870686E080831D
:102D1000E0918406F0918506808180618083E09156
:102D20008406F0918506808188608083E091840626
:102D3000F0918506808180688083E0918406F0911F
:102D4000850680818F7D80830E947C1160931107AE
:102D500070931207809313079093140766E675E04B
:102D600080915107909152070E9404166AE070E02A
:102D700080E090E00E94421181E08093250710934B
:102D800095078CE380939407809196078F3F09F411
:102D9000BDC061E0809198070E94061161E08091BA
:102DA0009A070E94061180919A07082E000C990B31
:102DB000FC01E656F94FE491F0E0EE0FFF1FEE58EC
:102DC000FA4F259134913093A1072093A007FC017D
:102DD000E255F94FE491E093A60780919807082EF9
:102DE000000C990BFC01E656F94FE491F0E0EE0F70
:102DF000FF1FEE58FA4F259134913093A30720938B
:102E0000A207FC01E255F94FE491E093A7078091F6
:102E10009B0781113EC061E0809196070E940611D8
:102E200061E0809197070E94061180919707082E14
:102E3000000C990BFC01E656F94FE491F0E0EE0F1F
:102E4000FF1FEE58FA4F2591349130939F0720933E
:102E50009E07FC01E255F94FE491E093A5078091AC
:102E60009607082E000C990BFC01E656F94FE491E9
:102E7000F0E0EE0FFF1FEE58FA4F2591349130939A
:102E80009D0720939C07FC01E255F94FE491E093E4
:102E9000A40780919B07882309F442C01FB7F894C8
:102EA0008091F505811127C0E4EAF6E08491E8EB12
:102EB000F6E09491E82FF0E0EE0FFF1FE859FA4F8B
:102EC000A591B491EC91E92321F461E08AE00E949C
:102ED000BA1061E08AE00E9406118CB580618CBD59
:102EE0008CB580648CBD61E08DE00E94061161E0CC
:102EF0008BE00E9406118091F5058F5F8093F505A8
:102F00001FBF80E58CBD81E08DBD0AC01092F40525
:102F10001092F30510924F06109271060E94130F43
:102F20008091990787FD1EC061E00E94061161E053
:102F3000809199070E94BA1061E070E080E090E013
:102F40000E94421160E0809199070E94BA106AE0E5
:102F500070E080E090E00E94421161E0809199076A
:102F60000E94BA108EEA0E949B1485ED0E949B1469
:102F700080E80E949B1488EA0E949B148FE30E94C1
:102F80009B1483ED0E949B1480E00E949B1480E4BC
:102F90000E949B148DE80E949B1484E10E949B1464
:102FA00080E20E949B1480E00E949B1481EA0E94B0
:102FB0009B1488EC0E949B148AED0E949B1482E172
:102FC0000E949B1481E80E949B148FEC0E949B142A
:102FD00089ED0E949B1481EF0E949B148BED0E944F
:102FE0009B1480E40E949B1484EA0E949B1486EA4E
:102FF0000E949B148EE20E949B148FEA0E949B14F5
:103000000E94E51468EE73E080E090E00E944211B7
:1030100080E094E0E0E0F1E0DF019C011D922150AE
:103020003040E1F71092F4051092F30510924F062C
:10303000109271060E94130FE0916C07F0916D07DA
:10304000138615861486DF011B9633961E92AE17E3
:10305000BF07E1F710926B0711E0BE01665F7F4F7B
:1030600080916C0790916D070E944813882309F4A2
:1030700054C067E0CE010A960E94A812998989136C
:10308000ECCF80916707811127C080916C079091E8
:103090006D070E944C0DBE01665F7F4F80916C07EB
:1030A00090916D070E94F71240E064EB80916C07ED
:1030B00090916D070E94B51280916C0790916D07F9
:1030C0000E942413082F80916C0790916D070E9435
:1030D0004C0D002309F473C3AE014F5F5F4FBE0177
:1030E000665F7F4F87E697E00E94820D0091680738
:1030F000CE010A960E946815801718F4809168071F
:1031000004C0CE010A960E946815809368078091DA
:103110006B078F5F80936B07A0CF04EF802E9924FD
:103120009394A12CB12C82E0282E312C0E947C118A
:10313000672B682B692B41F40E947C11623071056A
:103140008105910508F40AC10E947C116093FA057B
:103150007093FB058093FC059093FD050091F605A7
:103160001091F7052091F8053091F9056017710766
:103170008207930740F46093F6057093F7058093F8
:10318000F8059093F9050091F6051091F705209147
:10319000F8053091F9056B017C01C01AD10AE20AE9
:1031A000F30A970186010A3F11052105310508F44C
:1031B000D5C06093F6057093F7058093F80590935A
:1031C000F90580921D0790921E07A0921F07B092EA
:1031D00020071092210710922207109223071092C5
:1031E00024078091150790911607A0911707B091B9
:1031F00018078093190790931A07A0931B07B093A1
:103200001C070E947C11609315077093160780932A
:103210001707909318070E947C1160931107709311
:10322000120780931307909314070E947C116B017F
:103230007C0168E775E080915107909152070E94E8
:1032400004162AE041E050E060E070E08091510710
:10325000909152070E94BB156FE775E0809151076E
:10326000909152070E9404162AE0B701A6018091AE
:103270005107909152070E94BB1561E875E080915B
:103280005107909152070E94041680911507909162
:103290001607A0911707B0911807B701A601481BA0
:1032A000590B6A0B7B0B2AE08091510790915207D2
:1032B0000E94BB1561E875E080915107909152071B
:1032C0000E94041640911507509116076091170748
:1032D000709118078091190790911A07A0911B0708
:1032E000B0911C07481B590B6A0B7B0B2AE080919D
:1032F0005107909152070E94BB1563E875E08091D9
:103300005107909152070E9404160E947C11AB0154
:10331000BC012AE080915107909152070E94BB1591
:10332000009151071091520765E875E0C8010E94AD
:10333000A61565E775E0C8010E94A61565E070E076
:1033400080E090E00E9442110E947C11609315077A
:10335000709316078093170790931807809163075F
:1033600090916407DC01ED91FC9104A0F5A1E02DA2
:10337000EE24E394F12C00E010E02FE730E040E091
:1033800050E060E070E009958091630790916407D8
:10339000DC01ED91FC9104A0F5A1E02D0FE310E01C
:1033A00020E030E040E050E060E070E0099580917E
:1033B000630790916407DC01ED91FC9104A0F5A1F5
:1033C000E02D2FE730E04FE350E060E070E009953A
:1033D0008091630790916407DC01ED91FC9104A05A
:1033E000F5A1E02D00E010E02FE730E04FE350E0E2
:1033F0006FE770E009958091630790916407DC01A5
:10340000ED91FC9104A0F5A1E02D0AE010E02FE57C
:1034100030E040E050E06FE570E00995809163078F
:1034200090916407DC01ED91FC9104A0F5A1E02DE1
:103430002FE730E04AE050E060E070E00995E0916D
:103440006307F0916407B1E0B48B81E090E0938B67
:10345000828B918B808B35862486378626866CE816
:1034600075E0CF010E940416E0916307F0916407B4
:1034700011E6C12ED12CD586C4863786268680914A
:103480006507909166070E94D21129833A834B8386
:103490005C836D837E835A3040F468E975E08091E7
:1034A0006307909164070E940416809165079091CC
:1034B00066070E94D21129833A834B835C836D8314
:1034C0007E83452F50E060E070E02AE08091630742
:1034D000909164070E94BB1561E875E080916307D5
:1034E000909164070E940416809165079091660789
:1034F0000E94D21129833A834B835C836D837E8340
:103500006A3040F46AE975E080916307909164073E
:103510000E94041680916507909166070E94D2115F
:1035200029833A834B835C836D837E83462F50E0EF
:1035300060E070E02AE080916307909164070E9448
:10354000BB15E0916307F091640772E0D72ED48A2F
:10355000A3E0EA2EF12CF586E48625E230E03787F9
:1035600026870091650710916607D8011296ED90A5
:10357000FC901397F701858196810E944C0D40E0E5
:103580006CECD70115968D919C9116970E94B512FF
:10359000F701408164E4858196810E94B512D701CC
:1035A00012968C9112978823A9F01196EC91E9500C
:1035B000E33040F4F0E0EE0FFF1FE05FFA4F608170
:1035C000718102C06EEE72E0072E000C880B990B21
:1035D0000E944211F80102811381D8011596ED91E4
:1035E000FC911697138615861486DF011B96339679
:1035F0001E92AE17BF07E1F7BE01665F7F4FF8016D
:10360000858196810E944813882349F067E0CE01A6
:103610000A960E94A8129989891709F4D3C0C12C6F
:10362000D12C9EEFE92E92ECF92E009163071091B8
:103630006407A7019601C701B6010E94311F8823C4
:1036400019F06CE975E01AC026013701E89477F8A3
:103650002FEF3FEF4FE75FE7C301B2010E94311F39
:10366000811110C02FEF3FEF4FE75FE7C301B201B9
:103670000E944A1D181634F460EA75E0C8010E94E1
:10368000A61582C02FEF3FEF4FE75FE4C701B601F9
:103690000E942C1F181654F02FEF3FEF4FE75FECFE
:1036A000C701B6010E944A1D87FF03C064EA75E0A6
:1036B000E5CF20E030E0A901C701B6010E944A1D14
:1036C00087FF0DC0D801ED91FC910190F081E02DB4
:1036D0006DE2C8010995F7FAF094F7F8F0942AE042
:1036E00037ED43EA5BE3C701B6010E94911E2B014F
:1036F0003C010E94FD1E6B017C010E944F1D9B013D
:10370000AC01C301B2010E94901E2B013C012AE0D2
:10371000B701A601C8010E94BB15D801ED91FC912B
:103720000190F081E02D6EE2C801099520E030E0C3
:1037300040E251E4C301B2010E94B01D6B017C0163
:103740000E94FD1E2B01612C712C2AE0B301A20105
:10375000C8010E94BB15C301B2010E944F1D9B010D
:10376000AC01C701B6010E94901E20E030E040E2AB
:1037700051E40E94B01D0E94FD1EAB0160E070E0AC
:103780002AE0C8010E94BB1568EA75E080916307D2
:10379000909164070E9404160E94E5146AE070E0AC
:1037A00080E090E00E944211E0E0F1E020E034E0AF
:1037B000119221503040E1F70E940210B7CC1093D3
:1037C00067078ACCAE014F5F5F4FBE01665F7F4FD8
:1037D000C8010E94820D882341F068E0CE01019665
:1037E0000E94A81299858917B1F060E874EE6138DB
:1037F00024EE72070CF413CF072E000C880B990BE4
:103800000E94511D20E030E040E05CE30E94B01DCA
:103810006B017C010ACF698138E0639FB0011124FC
:103820008A81282F30E0322F2227330F330F330FB6
:10383000262B372B8A858031C9F4688570E08F810B
:103840006B01C81AD108C6019695982F88279795BD
:1038500087950E94361F60517109207F53E0220F27
:10386000331F5A95E1F7620F731FC1CFB901BFCF64
:10387000109275061092740688EE93E0A0E0B0E016
:103880008093760690937706A0937806B093790696
:103890002AE135E0309373062093720625EC30E080
:1038A00030937F0620937E0624EC30E0309381062F
:1038B0002093800620EC30E030938306209382062C
:1038C00021EC30E0309385062093840622EC30E032
:1038D000309387062093860626EC30E030938906E5
:1038E0002093880610928B0610928C0610928D06FB
:1038F00010928E0610921507109216071092170755
:10390000109218071092190710921A0710921B07AD
:1039100010921C0710921D0710921E0710921F078D
:10392000109220071092210710922207109223076D
:103930001092240710925A071092590780935B0740
:1039400090935C07A0935D07B0935E078CE295E0CF
:10395000909358078093570710927D0710927C0729
:1039600020E830E030937F0720937E0780E490E0EA
:103970009093810780938007309383072093820779
:10398000909385078093840710928F071092870782
:1039900010928607109289071092880781E0809321
:1039A0008E072FEF3FEF30938D0720938C073093D6
:1039B0008B0720938A0780939007109291071092AB
:1039C0009307109292078EE395E090937B07809384
:1039D0007A078FEF8093960780939A0780939807D2
:1039E0008093970784E08093990760E082E00E94CB
:1039F0000611E0EBF6E0E491E093AD07ECE9F6E0C8
:103A0000E491F0E0EE0FFF1FE057F94F859194919C
:103A10009093AF078093AE071092B8071092BA0741
:103A20001092B907E8EBF7E0129287E0E03BF80765
:103A3000D9F78CE893E090937907809378078DEA23
:103A400097E090936D0780936C0710926B0710922C
:103A5000670789E08093680781E080936907809316
:103A60006A0788EA97E09093AA078093A90787E6F8
:103A700097E09093AC078093AB078AE797E0909329
:103A800064078093630789EA97E0909366078093C1
:103A9000650708950E948C1D08F481E00895E8945C
:103AA00009C097FB3EF490958095709561957F4F86
:103AB0008F4F9F4F9923A9F0F92F96E9BB27939534
:103AC000F695879577956795B795F111F8CFFAF444
:103AD000BB0F11F460FF1BC06F5F7F4F8F4F9F4F75
:103AE00016C0882311F096E911C0772321F09EE8D3
:103AF000872F762F05C0662371F096E8862F70E039
:103B000060E02AF09A95660F771F881FDAF7880F12
:103B10009695879597F90895990F0008550FAA0B68
:103B2000E0E8FEEF16161706E807F907C0F01216D0
:103B30001306E407F50798F0621B730B840B950BD3
:103B400039F40A2661F0232B242B252B21F4089528
:103B50000A2609F4A140A6958FEF811D811D0895C5
:103B60000E94C31D0C94341E0E94261E38F00E9431
:103B70002D1E20F0952311F00C941D1E0C94231E75
:103B800011240C94681E0E94451E70F3959FC1F38A
:103B9000950F50E0551F629FF001729FBB27F00DFB
:103BA000B11D639FAA27F00DB11DAA1F649F662750
:103BB000B00DA11D661F829F2227B00DA11D621F9F
:103BC000739FB00DA11D621F839FA00D611D221F59
:103BD000749F3327A00D611D231F849F600D211D3D
:103BE000822F762F6A2F11249F5750409AF0F1F0C0
:103BF00088234AF0EE0FFF1FBB1F661F771F881F29
:103C000091505040A9F79E3F510580F00C941D1E25
:103C10000C94681E5F3FE4F3983ED4F38695779545
:103C20006795B795F795E7959F5FC1F7FE2B880FCE
:103C3000911D9695879597F9089597F99F6780E864
:103C400070E060E008959FEF80EC089500240A94EE
:103C50001616170618060906089500240A94121667
:103C60001306140605060895092E0394000C11F49A
:103C7000882352F0BB0F40F4BF2B11F460FF04C047
:103C80006F5F7F4F8F4F9F4F089557FD9058440FA0
:103C9000551F59F05F3F71F04795880F97FB991FAB
:103CA00061F09F3F79F08795089512161306140668
:103CB000551FF2CF4695F1DF08C0161617061806F5
:103CC000991FF1CF86957105610508940895E894D0
:103CD000BB2766277727CB0197F90895A1E21A2E13
:103CE000AA1BBB1BFD010DC0AA1FBB1FEE1FFF1FA0
:103CF000A217B307E407F50720F0A21BB30BE40BF0
:103D0000F50B661F771F881F991F1A9469F7609536
:103D10007095809590959B01AC01BD01CF010895F0
:103D20005058BB27AA270E94A81E0C94341E0E943C
:103D3000261E38F00E942D1E20F039F49F3F19F402
:103D400026F40C94231E0EF4E095E7FB0C941D1E44
:103D5000E92F0E94451E58F3BA17620773078407BC
:103D6000950720F079F4A6F50C94671E0EF4E09503
:103D70000B2EBA2FA02D0B01B90190010C01CA0125
:103D8000A0011124FF27591B99F0593F50F4503ED0
:103D900068F11A16F040A22F232F342F4427585FC2
:103DA000F3CF469537952795A795F0405395C9F7DA
:103DB0007EF41F16BA0B620B730B840BBAF0915092
:103DC000A1F0FF0FBB1F661F771F881FC2F70EC031
:103DD000BA0F621F731F841F48F487957795679504
:103DE000B795F7959E3F08F0B0CF9395880F08F0F0
:103DF0009927EE0F9795879508950E944D1E88F09C
:103E00009F5798F0B92F9927B751B0F0E1F0660F9E
:103E1000771F881F991F1AF0BA95C9F714C0B130DF
:103E200091F00E94671EB1E008950C94671E672F01
:103E3000782F8827B85F39F0B93FCCF3869577950E
:103E40006795B395D9F73EF49095809570956195F7
:103E50007F4F8F4F9F4F08950E948C1D08F48FEF66
:103E600008950E948C1D880B990B089597FB072ECF
:103E700016F4009407D077FD09D00E944A1F07FC72
:103E800005D03EF4909581959F4F0895709561956A
:103E90007F4F0895AA1BBB1B51E107C0AA1FBB1F80
:103EA000A617B70710F0A61BB70B881F991F5A95C6
:103EB000A9F780959095BC01CD010895EE0FFF1FE5
:103EC0000590F491E02D099481E090E0F8940C9431
:063ED000691FF894FFCF0A
:103ED60000000000000000000000000000000000DC
:103EE60000000000000000000000000000000000CC
:103EF60000000000000000000000000000000000BC
:103F0600000000000000000000000000000000802B
:103F1600808000000000000000000000000000009B
:103F2600008080C0C000000000000000000000000B
:103F3600000000000000000000000000000000007B
:103F4600000000000000000000000000000000006B
:103F5600000000000000000000000000000000005B
:103F66000000000080C0E0F0F8FCF8E0000000006F
:103F760000000000000000000000000000808080BB
:103F8600808000808000000000808080808000FFAC
:103F9600FFFF00000000808080800000808000001D
:103FA60080FFFF808000808000808080800080808D
:103FB6000000000000808000008C8E84000080F8E5
:103FC600F8F880000000000000000000000000007B
:103FD600F0F0F0F0F0F0F0F0F0F0F0F0E0E0C0809B
:103FE60000E0FCFEFFFFFF7FFFFFFFFFFF0000007A
:103FF6000000000000000000000000FEFFC70101F5
:10400600010183FFFF00007CFEC70101010183FF60
:10401600FFFF0038FEC78301010183C7FFFF0000D1
:1040260001FFFF010100FFFF0701010100007FFF03
:1040360080000000FFFF7F0000FFFFFF000001FF80
:10404600FFFF01000000000000000000000000006B
:10405600030F3F7F7FFFFFFFFFFFFFFFE7C7C78F0E
:104066008F9FBFFFFFC3C0F0FFFFFFFFFFFCFCFCFD
:10407600FCFCFCFCFCF8F8F0F0E0C00001030303D4
:10408600030301030300000000010303030301010E
:104096000301000000010303030301010303000001
:1040A60000030300000003030000000000000001FD
:1040B60003030303030100000001030100000003E2
:1040C60003010000000000000000000000000000E6
:1040D60000000080C0E0F0F9FFFFFFFFFF3F1F0F69
:1040E60087C7F7FFFF1F1F3DFCF8F8F8F87C7DFF38
:1040F600FFFFFFFFFFFFFF7F3F0F0700303000008D
:1041060000000000000000000000000000000000A9
:1041160000000000FEFEFC000000000000000000A1
:1041260000000000000000000000000000E0C000E9
:104136000000000000000000000030300000000019
:104146000000000000000000000000000000000069
:1041560000C0FEFFFFFFFFFFFFFFFFFF7F7F3F1F48
:104166000F071F7FFFFFF8F8FFFFFFFFFFFEF8E0D6
:10417600000000010000000000000000FEFE00003C
:1041860000FCFEFC0C06060EFCF80000F0F81C0E07
:104196000606060CFFFFFF0000FEFE00000000FC06
:1041A600FEFC00183C7E66E6CE84000006FFFF0695
:1041B60006FCFEFC0C0606060000FEFE0000C0F82B
:1041C600FC4E4646464E7C7840183C76E6CECC8081
:1041D60000000000000000000000000000000000D9
:1041E6000000000001070F1F1F3F3F3F3F1F0F0347
:1041F6000000000000000000000000000F0F00009B
:10420600000F0F0F000000000F0F000003070E0C39
:1042160018180C060F0F0F0000010F0E0C180C0FCC
:10422600070100040E0C180C0F070000000F0F000A
:10423600000F0F0F0000000000000F0F0000000726
:10424600070C0C181C0C060600040E0C180C0F07A5
:104256000000000000000000000000000000000058
:104266000000000000000000000000000000000048
:104276000000000000000000000000000000000038
:104286000000000000000000000000000000000028
:104296000000000000000000000000000000000018
:1042A6000000000000000000000000000000000008
:1042B60000000000000000000000000000000000F8
:1042C60000000000000000000000000000000000E8
:1042D600000103070F1F3F7F0080C0E0F0F8FCFEDF
:1042E6005E00BC00770100000000990F1314310F27
:1042F600E00F620F400F540F00000000190DE90C8B
:10430600490DBD0CE10CCD0CBE0C00000000B9053A
:104316001314490D480DED0B8C0885085D087908C6
:104326006D088D085C088E038D033709910A830793
:104336006507EE068F06564D4450565F317C315F59
:10434600564D4450560D0A00564D4450455F003AAE
:10435600323A007C005F564D4450450054656D70FE
:104366006572617475726500200030006E616E00C2
:0C437600696E66006F7666006043000010
:107800000C94343C0C94513C0C94513C0C94513CE1
:107810000C94513C0C94513C0C94513C0C94513CB4
:107820000C94513C0C94513C0C94513C0C94513CA4
:107830000C94513C0C94513C0C94513C0C94513C94
:107840000C94513C0C94513C0C94513C0C94513C84
:107850000C94513C0C94513C0C94513C0C94513C74
:107860000C94513C0C94513C11241FBECFEFD8E036
:10787000DEBFCDBF11E0A0E0B1E0ECE9FFE702C060
:1078800005900D92A230B107D9F712E0A2E0B1E065
:1078900001C01D92AD30B107E1F70E942D3D0C945F
:1078A000CC3F0C94003C982F959595959595959582
:1078B000905D8F708A307CF0282F295A8091C0000B
:1078C00085FFFCCF9093C6008091C00085FFFCCF60
:1078D0002093C6000895282F205DF0CF982F809127
:1078E000C00085FFFCCF9093C6000895EF92FF92F1
:1078F0000F931F93EE24FF2487018091C00087FD22
:1079000017C00894E11CF11C011D111D81E4E8164B
:1079100082E4F8068FE0080780E0180770F3E09132
:107920000401F091050109958091C00087FFE9CF1E
:107930008091C6001F910F91FF90EF9008950E94D3
:10794000763C982F8091C00085FFFCCF9093C600B5
:1079500091362CF490330CF09053892F089597555D
:10796000892F08951F930E949F3C182F0E949F3CCF
:107970001295107F810F1F9108951F93182F882350
:1079800021F00E94763C1150E1F71F9108951F935A
:10799000182F0E94763C803249F0809103018F5F5E
:1079A000809303018530C1F01F9108958091C0003C
:1079B00085FFFCCF84E18093C6008091C00085FFE5
:1079C000FCCF1093C6008091C00085FFFCCF80E102
:1079D0008093C6001F910895E0910401F091050184
:1079E00009951F9108950E94763C803241F0809164
:1079F00003018F5F80930301853081F008958091AA
:107A0000C00085FFFCCF84E18093C6008091C00058
:107A100085FFFCCF80E18093C6000895E0910401CA
:107A2000F09105010995089540E951E08823A1F0FE
:107A30002D9A28EE33E0FA013197F1F721503040CA
:107A4000D1F72D9828EE33E0FA013197F1F7215064
:107A50003040D1F7815061F708953F924F925F9285
:107A60006F927F928F929F92AF92BF92CF92DF924E
:107A7000EF92FF920F931F93CF93DF93000080E16B
:107A80008093C4001092C50088E18093C10086E015
:107A90008093C2005098589A259A81E00E94143D24
:107AA00024E1F22E9EE1E92E85E9D82E0FE0C02ECA
:107AB00010E1B12EAA24A394B1E49B2EA6E58A2E50
:107AC000F2E57F2EE0E26E2E79E4572E63E5462E36
:107AD00050E5352E0E94763C8033B1F18133B9F107
:107AE000803409F46FC0813409F476C0823409F41B
:107AF00085C0853409F488C0803531F1823521F1A3
:107B0000813511F1853509F485C0863509F48DC0BC
:107B1000843609F496C0843709F403C1853709F423
:107B200072C1863709F466C0809103018F5F80932C
:107B30000301853079F6E0910401F0910501099582
:107B40000E94763C803351F60E94F33CC3CF0E94E2
:107B5000763C803249F78091C00085FFFCCFF092DF
:107B6000C6008091C00085FFFCCF9092C600809136
:107B7000C00085FFFCCF8092C6008091C00085FFC9
:107B8000FCCF7092C6008091C00085FFFCCF609250
:107B9000C6008091C00085FFFCCF5092C600809146
:107BA000C00085FFFCCF4092C6008091C00085FFD9
:107BB000FCCF3092C6008091C00085FFFCCFB09210
:107BC000C60088CF0E94763C863808F4BDCF0E945C
:107BD000763C0E94F33C7ECF0E94763C803809F4CC
:107BE0009CC0813809F40BC1823809F43CC1883942
:107BF00009F48FC080E00E94C73C6CCF84E10E94F2
:107C0000BD3C0E94F33C66CF85E00E94BD3C0E94D3
:107C1000F33C60CF0E94763C809306010E94763C44
:107C2000809307010E94F33C55CF0E94763C80333D
:107C300009F41DC183E00E94BD3C80E00E94C73C66
:107C400049CF0E94763C809309020E94763C809343
:107C5000080280910C028E7F80930C020E94763C79
:107C6000853409F415C18091080290910902892B8D
:107C700089F000E010E00E94763CF801E85FFE4FDA
:107C800080830F5F1F4F80910802909109020817AF
:107C9000190788F30E94763C803209F045CF809125
:107CA0000C0280FF01C16091060170910701660F0F
:107CB000771F7093070160930601A0910802B091AD
:107CC00009021097C9F0E8E0F1E09B01AD014E0F09
:107CD0005F1FF999FECF32BD21BD819180BDFA9A17
:107CE000F99A2F5F3F4FE417F50799F76A0F7B1F4B
:107CF00070930701609306018091C00085FFFCCF5F
:107D0000F092C6008091C00085FFFCCFB092C60003
:107D1000E1CE83E00E94C73CDDCE82E00E94C73CFA
:107D2000D9CE0E94763C809309020E94763C8093D3
:107D300008028091060190910701880F991F909386
:107D40000701809306010E94763C853409F4A6C0A1
:107D500080910C028E7F80930C020E94763C8032D0
:107D600009F0B8CE8091C00085FFFCCFF092C6002C
:107D7000609108027091090261157105B9F140E046
:107D800050E080910C02A82FA170B82FB27011C0E2
:107D9000BB2309F45CC0E0910601F0910701319624
:107DA000F0930701E09306014F5F5F4F46175707B7
:107DB000E8F4AA2369F3F999FECF209106013091E6
:107DC000070132BD21BDF89A90B58091C00085FFB2
:107DD000FCCF9093C6002F5F3F4F30930701209355
:107DE00006014F5F5F4F4617570718F38091C00099
:107DF00085FDE5CE8091C00085FFF8CFE0CE81E023
:107E00000E94C73C67CE0E94763C803209F08CCE3F
:107E10008091C00085FFFCCFF092C6008091C00029
:107E200085FFFCCFE092C6008091C00085FFFCCFAB
:107E3000D092C6008091C00085FFFCCFC092C600E2
:107E40008091C00085FFFCCFB092C60043CEE09188
:107E50000601F091070194918091C00085FFFCCF4D
:107E60009093C6009CCF80E10E94C73C33CE0E9415
:107E7000763C0E94763C182F0E94763C112309F430
:107E800083C0113009F484C08FE00E94C73C22CE29
:107E900080910C02816080930C02E5CE80910C02EF
:107EA000816080930C0259CF809107018823880F4D
:107EB000880B8A2180930B02809106019091070123
:107EC000880F991F90930701809306018091080203
:107ED00080FF09C080910802909109020196909359
:107EE000090280930802F894F999FECF1127E091D6
:107EF0000601F0910701C8E0D1E08091080290915D
:107F00000902103091F40091570001700130D9F34B
:107F100003E000935700E89500915700017001308D
:107F2000D9F301E100935700E89509901990009169
:107F3000570001700130D9F301E000935700E89534
:107F40001395103498F011270091570001700130FB
:107F5000D9F305E000935700E895009157000170B0
:107F60000130D9F301E100935700E895329602976A
:107F700009F0C7CF103011F00296E5CF112480919F
:107F8000C00085FFB9CEBCCE8EE10E94C73CA2CD19
:0C7F900085E90E94C73C9ECDF894FFCF0D
:027F9C00800063
:040000030000780081
:00000001FF